:020000040800F2
:100000004805002001010008531700086715000883
:100010005117000849010008C51D00080000000034
:10002000000000000000000000000000B117000800
:100030004B0100080000000091170008B3170008EA
:100040001B0100081B0100081B0100081B01000820
:100050001B0100081B0100081B0100081B01000810
:100060001B0100081B0100081B0100081B01000800
:100070001B0100081B0100081B0100081B010008F0
:100080001B0100081B0100081B0100081B010008E0
:100090001B0100081B0100081B0100081B010008D0
:1000A0001B0100081B0100081B0100081B010008C0
:1000B0001B01000865180008711800081B010008E2
:1000C0001B0100081B0100081B0100081B010008A0
:1000D0001B0100081B010008B91D00081B010008D6
:1000E0001B0100081B0100081B010008DFF80CD0F1
:1000F00000F018F8004800477D1F00084805002060
:100100000648804706480047FEE7FEE7FEE7FEE7B1
:10011000FEE7FEE7FEE7FEE7FEE7FEE71D18000844
:10012000ED000008064C074D06E0E06840F00103D2
:1001300094E8070098471034AC42F6D3FFF7DAFF93
:100140001821000838210008FEE7704731B500F09B
:10015000EDF8044600F0EAF80099001B8842F9D354
:1001600038BD00002DE9F84FDFF890A100220AF118
:10017000040B144601274FF00F090BF1040E00BFCA
:100180000B6807FA04F52B40AB4274D1DFF870C15D
:100190004E68A6EB0C0866452BD00DDC032E34D040
:1001A00005DC36B3012E19D0022E2FD11BE0112E03
:1001B00016D0122E2AD119E0B8F5881F19D006DC06
:1001C000B8F5803F15D0B8F5801F1FD111E0B8F504
:1001D000001F0ED0B8F5041F18D10AE0CA6815E058
:1001E000CA68121D12E0CA6808320FE0CA680C32F1
:1001F0000CE08A682AB1012A4FF0080203D0456159
:1002000004E0042202E0056100E00022FF2B01D897
:10021000064601E000F104064FEA840501D9A5F184
:100220002005D6F800C009FA05F82CEA080C02FAF5
:1002300005F54CEA050CC6F800C04D68ED0057D531
:10024000304DAE6946F00106AE61AD6924F003069B
:1002500005F0010500952C4D06EB050CDCF8085067
:10026000A6074FEA167809FA08F6B543274EB042BA
:1002700002D1002610E03BE0254EB04201D101261C
:100280000AE0244EB04201D1022605E0224EB042DF
:1002900001D1032600E0042606FA08F62E43CCF826
:1002A00008604D68DAF80060ED03554601D51E433D
:1002B00000E09E432E604D68DBF80060AD035D46B4
:1002C00001D51E4300E09E432E604D68DEF80060BD
:1002D000ED02754601D51E4300E09E432E604D6839
:1002E000AD020E4D2E6801D51E4300E09E432E60E8
:1002F000641C102CFFF444AFBDE8F88F00040140EB
:1003000000001110001002400000014000080140F0
:10031000000C014000100140001401400C04014099
:100320000AB1016170470904FBE700000148006859
:10033000704700000000002002480168491C01606D
:100340007047000000000020074810B5016841F028
:1003500010010160032000F087F8002000F006F88B
:1003600000F016F8002010BD0020024010B5044631
:1003700000F050F94FF47A71B0FBF1F000F090FC0E
:1003800000222146501E00F04FF8002010BD000052
:100390001D4808B5816941F001018161806900F063
:1003A00001000090032000F05FF8002211466FF07A
:1003B0000B0000F039F8002211466FF00A0000F03F
:1003C00033F8002211466FF0090000F02DF80022EA
:1003D0001146501F00F028F800221146101F00F0AF
:1003E00023F800221146901E00F01EF8002211464C
:1003F000501E00F019F80548416821F0E06141F015
:100400000071416008BD0000001002400000014082
:1004100000F01F02012191404009800000F1E0201E
:10042000C0F8001170470000F0B40E4B1B680C467A
:10043000C3F30223C3F10705042D00D90425191DB8
:10044000072901D2002300E0DB1E012606FA05F190
:10045000491E214099409E40761E16403143F0BC13
:1004600001F078B90CED00E0064900F007020868D9
:100470004FF6FF03184040EA0220034A1043086089
:10048000704700000CED00E00000FA052DE9F04790
:10049000DFF8708105460E46D8F8000000F007002E
:1004A000B0420CD2D8F8001021F007013143C8F84F
:1004B0000010D8F8000000F00700B04277D128788B
:1004C000514C800705D56068A96820F0F00008430A
:1004D00060602878C00759D06968012001290DD0D3
:1004E000022929D05FF0020393FAA3F2B2FA82F252
:1004F00042F02002520904D0226803E04FF4003396
:10050000F2E7626A93FAA3F3B3FA83F303F01F03EB
:10051000984002424BD0606820F0030008436060BE
:10052000FFF704FF6968074641F2883001290DD0C2
:100530000229814617D025E04FF00073D4E700BFB1
:10054000FFF7F4FEC11B494501D918E081466068F8
:10055000C0F381000128F3D118E000BFFFF7E6FEE9
:10056000C11B49450BD86068C0F381000228F5D152
:100570000CE000BFFFF7DAFEC11B494502D903209A
:10058000BDE8F087606810F00C0FF3D1D8F80010C8
:10059000404601F00701B1420BD9016821F0070183
:1005A00031430160006800F00700B04201D0012033
:1005B000E6E72878400705D56068E96820F4E06040
:1005C000084360602878000706D56068296920F430
:1005D000605040EAC100606000F052F86168F022AB
:1005E00092FAA2F201F0F001B2FA82F2D140074A87
:1005F000515CC840064908600020FFF7B7FE0020A4
:10060000BEE7000000200240001002400021000868
:100610000C00002001480068704700000C0000201A
:1006200008480949006849684FF4E06292FAA2F26A
:1006300001F4E061B2FA82F2D140044A515CC84050
:10064000704700000C00002000100240102100083C
:1006500008480949006849684FF4605292FAA2F2CA
:1006600001F46051B2FA82F2D140044A515CC840B0
:10067000704700000C00002000100240102100080C
:1006800010B519A385B00FCB8DE80F001AA01B4B36
:10069000006804905A681A4802F00C0104291DD021
:1006A00008291BD14FF4701494FAA4F402F47011C9
:1006B000B4FA84F4E140D2031DF8011010D55A6851
:1006C0004FF4003393FAA3F302F40032B3FA83F346
:1006D000DA4004AB9A5CB0FBF2F0484305B010BDC1
:1006E00008484843FAE70000020304050607080922
:1006F0000A0B0C0D0E0F101001020000001002403A
:1007000000127A0000093D002DE9F84F04460078F8
:10071000F74DC0074FF0010625D068687704C0F395
:100720008100012807D06868C0F3810002281BD12E
:100730006868C00318D597FAA7F0B0FA80F040F0C7
:100740002000400901D0286800E0686A97FAA7F104
:10075000B1FA81F101F01F0106FA01F108425ED001
:10076000606800287CD05AE06068B0F5803F0BD00C
:1007700010B1B0F5A02F11D0286820F48030286087
:10078000286820F4802002E0286840F48030286047
:10079000606828B3FFF7CAFD80460BE0286840F484
:1007A00080202860F0E700BFFFF7C0FDA0EB080045
:1007B000642871D897FAA7F0B0FA80F040F02000D2
:1007C000400901D0286800E0686A97FAA7F1B1FAF9
:1007D00081F101F01F0106FA01F10842E4D01EE0A8
:1007E000FFF7A4FD804605E0FFF7A0FDA0EB0800A1
:1007F0006428DED897FAA7F0B0FA80F040F0200025
:10080000400901D0286800E0686A97FAA7F1B1FAB8
:1008100081F101F01F0106FA01F10842E4D12078CC
:10082000DFF8D08280074FF000094FF002075BD558
:1008300068684FF0F80B10F00C0F07D06868C0F331
:10084000810002281CD16868C00319D497FAA7F068
:10085000B0FA80F040F02000400902D0286801E0A2
:100860008BE0686A97FAA7F1B1FA81F101F01F01F4
:1008700006FA01F108422CD0206901287DD128E038
:10088000206990B396FAA6F0B0FA80F048F820609C
:10089000FFF74CFD824607E011E100BFFFF746FD80
:1008A000A0EB0A00022884D897FAA7F0B0FA80F0EB
:1008B00040F02000400901D0286800E0686A97FAFB
:1008C000A7F1B1FA81F101F01F0106FA01F1084226
:1008D000E4D028689BFAABF26169B2FA82F220F0A8
:1008E000F80091400843286025E0FFE796FAA6F15A
:1008F000B1FA81F148F82190FFF718FD824605E032
:10090000FFF714FDA0EB0A000228CCD897FAA7F055
:10091000B0FA80F040F02000400901D0286800E0E3
:10092000686A97FAA7F1B1FA81F101F01F0106FA9E
:1009300001F10842E4D1207800076ED5A069B8B370
:1009400096FAA6F0B0FA80F008EB8000C0F8806458
:10095000FFF7ECFC824605E0FFF7E8FCA0EB0A009D
:100960000228A0D897FAA7F0B0FA80F040F0600013
:10097000B6EB501F02D128680CE062E197FAA7F0AD
:10098000B0FA80F040F06000B7EB501F01D1286A48
:1009900000E0686A97FAA7F1B1FA81F101F01F014E
:1009A00006FA01F21042D7D00120FFF7CFFB34E066
:1009B000FFE796FAA6F1B1FA81F108EB8101C1F8DF
:1009C0008094FFF7B3FC824606E000BFFFF7AEFC61
:1009D000A0EB0A00022872D897FAA7F0B0FA80F0CC
:1009E00040F06000B6EB501F01D128680BE097FA89
:1009F000A7F0B0FA80F040F06000B7EB501F01D1D3
:100A0000286A00E0686A97FAA7F1B1FA81F101F06B
:100A10001F0106FA01F21042D8D12078400765D5AF
:100A2000E86940F08050E861E869DFF8CCB000F098
:100A300080500090DBF8001041F48071CBF800107A
:100A4000FFF774FC824605E0FFF770FCA0EB0A009C
:100A5000642834D8DBF80000C005F5D5E06801282B
:100A60000AD008B1052813D0286A20F001002862B6
:100A7000286A20F0040002E0286A40F001002862A1
:100A8000E06841F2883B90B3FFF750FC82460BE0F0
:100A9000286A40F004002862EEE700BFFFF746FC3A
:100AA000A0EB0A0159450AD897FAA7F0B0FA80F0EE
:100AB00040F04000B6EB501F02D128680CE0A3E0E4
:100AC00097FAA7F0B0FA80F040F04000B7EB501F63
:100AD00001D1286A00E0686A97FAA7F1B1FA81F1BA
:100AE00001F01F0206FA02F10842D7D031E005E01A
:100AF000001002400000424200700040FFF716FC68
:100B0000824605E0FFF712FCA0EB0A0159457BD8AD
:100B100097FAA7F0B0FA80F040F04000B6EB501F13
:100B200001D128680BE097FAA7F0B0FA80F040F006
:100B30004000B7EB501F01D1286A00E0686A97FABD
:100B4000A7F1B1FA81F101F01F0206FA02F10842A1
:100B5000D8D1E06980B36968C1F38101022970D0FE
:100B60004FF080714F000228484609D091FAA1F158
:100B7000B1FA81F148F82100FFF7D8FB044669E09B
:100B80008A4691FAA1F1B1FA81F1C14648F82100F3
:100B9000FFF7CCFB804605E0FFF7C8FBA0EB0800A1
:100BA000022854D897FAA7F0B0FA80F040F020005D
:100BB000400902D0286801E061E0686A97FAA7F16D
:100BC000B1FA81F101F01F0106FA01F10842E3D107
:100BD000206AB0F5803F05D16868A16820F4003034
:100BE00008436860D4E908010843696821F4741176
:100BF000084368609AFAAAF0B0FA80F049F82060D9
:100C0000FFF794FB044606E021E000BFFFF78EFBF0
:100C1000001B02281BD897FAA7F0B0FA80F040F02A
:100C20002000400901D0286800E0686A97FAA7F11F
:100C3000B1FA81F101F01F0106FA01F10842E5D095
:100C40001DE01EE0FFF772FB001B022802D9032003
:100C5000BDE8F88F97FAA7F0B0FA80F040F02000D6
:100C6000400901D0286800E0686A97FAA7F1B1FA54
:100C700081F101F01F0106FA01F10842E2D10020E2
:100C8000E6E70120E4E74FF0E0210428086903D0FB
:100C900020F004000861704740F00400FAE7704754
:100CA00010B5401EB0F1807F01D3012010BD4FF080
:100CB000E02460610F21601700F04CFD0020A0616E
:100CC00007202061002010BD10B5FFF7E8FF10BD20
:100CD0007047704730B590F83820012A19D00122AA
:100CE00000F8382F02234370D1E900342343D1E9BF
:100CF00002452C4323430C6923434C6989692343F0
:100D00000B4350F8381C4B644270002101700846B8
:100D100030BD022030BD30B590F83820012A20D0F7
:100D2000012280F83820022380F8393003685C689B
:100D300024F070045C6003685C680D682C435C60A0
:100D400003689C6824F080049C6003689C68496880
:100D50000C439C6080F83920002180F83810084648
:100D600030BD022030BD10B5040003D094F8390026
:100D700010B107E0012010BD002084F838002046A3
:100D800000F00CF8022084F83900211D206800F0E2
:100D900075FD012084F83900002010BD08B5154A02
:100DA0000168154891420ED1C16941F00201C1614B
:100DB000C069002200F00200009011461D20FFF7DC
:100DC00033FB1D2010E00D4A914211D1C16941F061
:100DD0000401C161C069002200F0040000901146C6
:100DE0001E20FFF721FB1E20BDE80840FFF710BBC7
:100DF00008BD000000040040001002400008004050
:100E000070B5044690F83800012817D0012584F801
:100E10003850022084F839002068826822F0770276
:100E200022F47F4282600868502837D00DDC2028E9
:100E300059D005DC88B3102841D151E0022070BDA3
:100E4000302853D040283AD13FE060282ED0702877
:100E50000BD0B0F5805F03D0B0F5005F2FD110E06C
:100E60002068816821F0070115E0CB68D1E90121F4
:100E7000206800F040FD2168886840F077008860B5
:100E80001DE0CB68D1E90121206800F034FD206825
:100E9000816841F48041816011E01EE0CA684968C0
:100EA000206800F0DDFD5021206806E0CA6849682E
:100EB000206800F0E6FD6021206800F026FD84F83F
:100EC0003950002084F8380070BDCA68496820682D
:100ED00000F0C6FD40212068EFE700212068ECE724
:100EE00010212068E9E720212068E6E7302120680A
:100EF000E3E7704770B50446006801694FF00005EC
:100F0000C943890715D4C168C943890711D4E91EAB
:100F1000016101202076206880698007204602D088
:100F2000FFF7E7FF04E000F0B3F8204600F052F9C5
:100F3000257620680169C943490717D4C168C943A8
:100F4000490713D46FF00401016102202076206864
:100F5000806910F4407F204602D0FFF7CAFF04E00A
:100F600000F096F8204600F035F9257620680169F2
:100F7000C943090716D4C168C943090712D46FF0E1
:100F800008010161042020762068C069800720469E
:100F900002D0FFF7AEFF04E000F07AF8204600F040
:100FA00019F9257620680169C943C90617D4C168B3
:100FB000C943C90613D46FF01001016108202076DF
:100FC0002068C06910F4407F204602D0FFF791FFEF
:100FD00004E000F05DF8204600F0FCF8257620687B
:100FE0000169C943C90708D1C168C943C90704D108
:100FF000891E0161204600F007F920680169C94394
:10100000090609D4C168C943090605D46FF08001F7
:1010100001612046FFF75CFE20680169C94349066B
:1010200009D4C168C943490605D46FF04001016184
:10103000204600F0EAF820680169C94389060BD40C
:10104000C168C943890607D46FF0200101612046B9
:10105000BDE87040FFF73DBE70BD00001FB50A4BF4
:101060000268022109489A4202D14FF4406203E02B
:10107000B2F1804F06D10322CDE9002103916946E8
:10108000FFF770F81FBD0000002C01400008014070
:10109000704770B5044690F838000D4601280DD011
:1010A000012684F83860022084F8390042B1042A0D
:1010B00018D0082A2AD00C2A4DD139E0022070BD60
:1010C000206800F02BFC2068816941F008018161F3
:1010D0002068816921F004018161206881692A69A1
:1010E000114311E0206800F041FC2068816941F45F
:1010F000006181612068816921F4806181612068DB
:1011000081692A6941EA0221816124E0206800F0B6
:1011100059FC2068C16941F00801C1612068C169BA
:1011200021F00401C1612068C1692A69114311E0FD
:10113000206800F073FC2068C16941F40061C1615E
:101140002068C16921F48061C1612068C1692A6990
:1011500041EA0221C16184F83960002084F8380036
:1011600070BD10B5040003D094F8390010B107E049
:10117000012010BD002084F83800204600F00CF853
:10118000022084F83900211D206800F077FB01203F
:1011900084F83900002010BD08B50C4A01680C48DD
:1011A000914207D1816941F400618161806900F455
:1011B000006009E0B1F1804F07D1C16941F0010140
:1011C000C161C06900F00100009008BD002C014021
:1011D000001002407047000010B50446006801226C
:1011E00000F07EFB07492068884203D1416C41F43E
:1011F000004141642068016841F001010160002064
:1012000010BD0000002C014070477047704700007F
:1012100038B5044600680168C26811F0010F02F495
:10122000807204D01AB1E16B41F00101E163016801
:10123000C1F34002416901F0010122B119B1E26B31
:1012400042F00402E2630268C2F3800222B119B1E3
:10125000E26B42F00202E2630268C2F3C00222B112
:1012600019B1E16B41F00801E1630168C068C1F3A5
:10127000401100F0200019B110B1204600F014FC1C
:1012800020680168C068C1F3C01100F0800019B186
:1012900010B1204600F014FD21680868CA68C0F348
:1012A000801002F04002012570B16AB1CA68204680
:1012B00022F04002CA6094F83910322911D080F827
:1012C000395000BF00F04EF9E06B002808D02068CC
:1012D00001684068009084F839502046FFF796FF77
:1012E00038BD222180F83910ECE770B5040004D035
:1012F00094F83900002510B106E0012070BD84F893
:101300003850204600F020F8022084F83900206888
:10131000C16821F40051C160204600F019FC20682A
:10132000016921F4904101612068416921F02A019D
:1013300041612068C16841F40051C160E56301204A
:1013400084F83900002070BD10B50068154986B0DA
:10135000884224D11448C16941F40031C161C06997
:10136000124C00F400300490042000900220019000
:101370000320039069462046FEF7F4FE0021082072
:10138000CDE90001029169462046FEF7EBFE0022FE
:1013900011462620FFF748F82620FFF739F806B057
:1013A00010BD000000440040001002400008014051
:1013B00090F83930012B01D0122B2CD139B332B334
:1013C00090F83830012B26D0012380F83830816224
:1013D0008285C2850021C16390F83920122A18D075
:1013E0005FF0220280F8392080F838100168CA685E
:1013F00042F48072CA6001684A6942F001024A619F
:101400000068C16841F02001C160002070470120E0
:1014100070473222E6E70220704700001C4810B5F2
:101420000178407811B102292AD115E0062827D287
:10143000DFE800F0260306090C0F00F03EFD1FE078
:1014400000F032FD1CE000F041FD19E000F047FD26
:1014500016E000F04DFD13E0012806D0022807D069
:10146000032808D004280BD108E000F00BFD07E0AA
:1014700000F0D2FC04E000F0E1FC01E000F0F0FC40
:10148000BDE81040022202490248FFF791BF000068
:1014900004000020040100202DE9F047044690F8E4
:1014A000390099460D46012801D0222858D12DB384
:1014B00022B394F83800012852D0012684F838600D
:1014C0000027E76394F8390022281AD05FF0120051
:1014D00084F83900A284E2844FF48058E08C4B46B3
:1014E000401EE084A0684FF0000240454FF08001AC
:1014F000204613D100F017FC08BB04E00120BDE832
:10150000F0873220E4E728882168C0F308004860AB
:10151000206908B16D1C08E0AD1C06E000F003FC7A
:1015200068B9216815F8010B4860E08C0028D5D116
:101530004B4600224021204600F0F5FB08B1032075
:10154000DDE794F83900322806D084F8396000BF0E
:1015500084F838700020D2E7222084F83900F7E7B9
:101560000220CCE77047FEE72DE9F041324886B013
:10157000816941F010018161816901F010010491DC
:10158000816941F020018161816901F020010491AC
:10159000816941F004018161816901F004010491D4
:1015A000816941F0080181618069244E00F00800E2
:1015B0004FF400540490002221463046FEF7B0FE5E
:1015C0001F4F0022B0213846FEF7AAFEDFF87480D4
:1015D000002203214046FEF7A3FE009401240225C9
:1015E0006946304603950194FEF7BCFDB020CDE975
:1015F0000004694603953846FEF7B4FD402000908C
:1016000011480026CDE9010669463846FEF7AAFDD5
:101610000320CDE90004694603954046FEF7A2FD8C
:10162000F820CDE90006694640460296FEF79AFD8D
:1016300006B0BDE8F081000000100240001001403B
:1016400000080140000C01400000311030B5234873
:10165000214991B002C04FF44871002440F2E735AF
:1016600032C040F8104944611C48FFF77AFD00B1D0
:10167000FEE70E940EA919480F94FFF74CFB00B13A
:10168000FEE760200090CDE9015403940494059492
:101690000822694611480694FFF7FBFC00B1FEE7FB
:1016A0000C2269460D48FFF7F4FC00B1FEE70794F1
:1016B000089409944FF400500A94CDE90B4007A90F
:1016C00006480D94FFF706FB00B1FEE70348FFF75D
:1016D000C5FC11B030BD0000002C014014000020FA
:1016E00010B51A488AB04FF080410160582100249B
:1016F000C0E9011440F20771C0E90314FFF731FD9E
:1017000000B1FEE7079407A910480894FFF703FB10
:1017100000B1FEE7602000902D20CDE901040022F9
:1017200069460A480494FFF7B4FC00B1FEE77B2049
:101730000190042269460548FFF7ABFC00B1FEE7C3
:101740000248FFF78BFC0AB010BD000050000020DB
:10175000FEE770470907090E002806DA00F00F00BF
:1017600000F1E02080F8141D704700F1E02080F8BF
:101770000014704710B50C210448FFF72DFDBDE89B
:10178000104008210148FFF727BD00001400002089
:101790007047000010B500210448FFF71DFDBDE8AB
:1017A000104004210148FFF717BD00005000002041
:1017B000704710B5FEF7C0FDBDE81040FFF784BAD2
:1017C00010B590B002200090012004901020002459
:1017D000059007946846FEF797FF00B1FEE70F20DB
:1017E000CDE90A040C940D9400210AA80E94FEF78A
:1017F0004DFE00B1FEE7FEF70DFF4FF47A71B0FB2E
:10180000F1F0FFF74DFA0420FFF73DFA00221146F0
:10181000501EFEF709FE10B010BD00000D48016813
:1018200041F00101016041680B4A114041600168CB
:101830000A4A11400160016821F480210160416879
:1018400021F4FE0141604FF41F0181600449C0038F
:1018500008607047001002400000FFF8FFFFF6FE2E
:1018600008ED00E00148FFF745BB00008C000020B8
:101870000148FFF73FBB0000C8000020F0B5026838
:10188000144B154C154D4FF08047984205D0B84287
:1018900003D0A04201D0A84203D122F070064A68CA
:1018A0003243984205D0B84203D0A04201D0A842AA
:1018B00003D122F44074CA68224302608A68C2627B
:1018C0000A688262984201D109690163012141617C
:1018D000F0BD0000002C0140000400400008004062
:1018E00010B50123046A8B409C430462036A8A405A
:1018F0001343036210BD10B5846842EA032224F446
:101900007F440A432243826010BD826822F0700245
:101910000A4342F0070181607047000030B5026A57
:1019200022F001020262026A4368846924F07305AE
:101930000C682C4322F002058A682A430A4DA8420B
:101940000BD122F00805CA6823F440732A434D697D
:1019500022F004021D438B692B4343608461496874
:101960004163026230BD0000002C014030B5026AC4
:1019700022F010020262026A436884690D6824F44E
:10198000E64444EA05248D6822F0200242EA05126A
:101990000B4DA8420ED1CD6822F0800242EA05121A
:1019A0004D6923F4406343EA85038D6922F04002C8
:1019B00043EA85034360846149688163026230BD04
:1019C000002C014030B5026A22F480720262036A80
:1019D0004268C46923F4007324F073050C682C4337
:1019E0008D6843EA05230C4DA8420ED1CD6823F43F
:1019F000006343EA05234D6922F4405242EA05128E
:101A00008D6923F4806342EA05124260C46149682B
:101A1000C163036230BD0000002C014030B5026A92
:101A200022F480520262046A4268C3690D6823F49A
:101A3000E64343EA05238D6824F4005444EA053460
:101A4000064DA84204D14D6922F4804242EA851233
:101A50004260C36149680164046230BD002C0140EA
:101A600010B5036A046A24F001040462846924F056
:101A7000F00444EA021423F00A020A438461026279
:101A800010BD10B5036A23F0100303628369046A72
:101A900023F4704343EA023224F0A00343EA011125
:101AA0008261016210BD000010B590F83910222942
:101AB00003D0322901D0022010BD8168B1F5805FCA
:101AC00011D00169002901681FD0496801F07F0326
:101AD000816A4A1C82620B70C18D491E0904090C7F
:101AE000C18518D030E00269816A002A0268526814
:101AF00005D0D2B20A80816A491C8162ECE7C2F348
:101B000008020A80816A891CF7E74A68816A4B1CCF
:101B100083620A70E0E70168CA6822F02002CA60A6
:101B200090F83910322911D00168CA6822F4807205
:101B3000CA6001684A6922F001024A615FF001014E
:101B400080F83910FFF76AFC002010BD1221F7E77A
:101B50002DE9F041044600680169E26821F4405132
:101B6000114301612169A068084361690843216844
:101B7000CA6841F20C639A430243CA602068416913
:101B8000A26921F44071114341614C4920686425E8
:101B9000322688423CD1FEF75BFD00EBC00101EB31
:101BA000001061688900B0FBF1F7FEF751FD00EB12
:101BB000C00101EB00106168B0468900B0FBF1F094
:101BC000B0FBF5F06FF01801484307EB800106EB1E
:101BD0000110B0FBF5F000F0F006FEF739FD00EB68
:101BE000C00101EB001061688900B0FBF1F0B0FBAF
:101BF000F5F006EB0016FEF72BFD00EBC00101EB44
:101C0000001061688900B0FBF1F7FEF721FD3BE0B1
:101C1000FEF706FD00EBC00101EB001061688900D2
:101C2000B0FBF1F7FEF7FCFC00EBC00101EB00108C
:101C30006168B0468900B0FBF1F0B0FBF5F06FF0E1
:101C40001801484307EB800106EB0110B0FBF5F0EB
:101C500000F0F006FEF7E4FC00EBC00101EB001021
:101C600061688900B0FBF1F0B0FBF5F006EB0016FF
:101C7000FEF7D6FC00EBC00101EB001061688900A3
:101C8000B0FBF1F7FEF7CCFC00EBC00101EB00105C
:101C900061688900B0FBF1F0B0FBF5F06FF018015E
:101CA000484307EB800108EB0110B0FBF5F0216819
:101CB00000F00F0030448860BDE8F081003801403A
:101CC00090F83910122903D0322901D00220704730
:101CD0008168B1F5805F016A0BD04A1C026202681C
:101CE00009785160C18C491E0904090CC1840ED0C9
:101CF00017E009880268C1F30801516001690029F1
:101D0000016A02D0491C0162ECE7891CFBE701680B
:101D1000CA6822F08002CA600068C16841F04001D0
:101D2000C160002070472DE9F0471D4690460E46E1
:101D30000446FEF7FBFA07465FEA08004FF0000989
:101D40004FF0010808D030E0681C05D095B1FEF7CF
:101D5000EDFAC01BA8420DD82068006836EA0000E2
:101D6000F2D127E0681C20D025B1FEF7DFFAC01BB6
:101D7000A8421AD92068C16821F08001C16020689A
:101D8000C16821F02001C1602068C16821F4807120
:101D9000C1602068416921F00101416184F8398006
:101DA00084F838900320BDE8F0872068006836EAA0
:101DB0000000D7D00020F6E70148FFF729BA00005D
:101DC00004010020FEE70000014A024900F013B8B8
:101DD0002D1F00081000002002E008C8121F08C1D3
:101DE000002AFAD170477047002001E001C1121F9C
:101DF000002AFBD170472DE9F04116460F460446F4
:101E0000002503E03946B047641C6D1C207800288B
:101E1000F8D12846BDE8F08106484188C91C89B23E
:101E20004180872901D38721418088B2024909680E
:101E300048637047060000205000002006480188D3
:101E4000C91C89B20180C62901D3C621018088B28C
:101E5000024909688863704706000020500000208E
:101E600006480188C91E89B20180302901D8302175
:101E7000018088B202490968886370470600002023
:101E80005000002006484188C91E89B241802D2992
:101E900001D82D21418088B2024909684863704702
:101EA000060000205000002010B5002000F008F9C6
:101EB000BDE81040012000F003B910B5002000F08B
:101EC000DFF8BDE81040012000F0DAB810B50020BE
:101ED00000F0F6F8BDE81040012000F0D1B810B5D0
:101EE000002000F0CDF8BDE81040012000F0E8B877
:101EF00010B50C4C002210212046FEF711FA0022EA
:101F000020212046FEF70CFA074C00220121204632
:101F1000FEF706FA20460022BDE810400221FEF737
:101F2000FFB9000000080140000C014038B504462C
:101F30008DF800000223012269460248FFF7ACFA3F
:101F4000204638BD0401002070B501220A4D54031B
:101F500021462846FEF7E4F94FF47A763046FEF73C
:101F6000F5F8002221462846FEF7DAF93046BDE8AA
:101F70007040FEF7EBB800000010014086B0FEF79D
:101F8000E3F9FFF71DFCFFF7EFFAFFF7A9FB334872
:101F900031490024C0E90014A021C0E902410461D4
:101FA000FEF7E1FE00B1FEE74FF4805569462B488D
:101FB0000095FEF725FF00B1FEE7049404A9274829
:101FC0000594FEF7A8FE00B1FEE7244824493C38FA
:101FD000016040F21F31C0E9011442F20F71C0E903
:101FE0000314FEF7C0FE00B1FEE71C4869463C380A
:101FF0000095FEF705FF00B1FEE71848049404A918
:102000003C380594FEF787FE00B1FEE7FFF71EFBA4
:10201000124814493C3001604FF4E131C0E9011429
:102020000C21C460C0E904418461C461FFF75DF91B
:1020300000B1FEE7FFF79EFBFFF7ACFB074802226B
:1020400009493C30FFF7B4F908A0FFF7BDFE00BF17
:10205000FFF77AFFFCE7000000080040C8000020FE
:102060000004004000440040040000206D61696EDF
:1020700020696E6974206973206F6B210A0000006B
:1020800010B570B1012815D10B4C01221146204624
:10209000FEF746F9002202212046BDE81040FEF777
:1020A0003FB9064C012210212046FEF739F90022E3
:1020B0002021F1E710BD0000000C014000080140A4
:1020C00010B570B1012815D10B4C0022012120461A
:1020D000FEF726F9012202212046BDE81040FEF756
:1020E0001FB9064C002210212046FEF719F90122E3
:1020F0002021F1E710BD0000000C01400008014064
:1021000000000000000000000102030406070809A7
:102110000000000001020304382100080000002034
:1021200014000000D81D00084C21000814000020F5
:1021300034050000E81D000800000000FFFF7B00E0
:0C2140002D00000000A24A040000000076
:04000005080000ED02
:00000001FF
